:020000040800F2
:1000000000500020F1260008F9020008FB02000859
:10001000FD020008FF0200080103000800000000C4
:1000200000000000000000000000000003030008C2
:10003000050300080000000007030008090300088A
:100040003927000839270008392700083927000810
:100050003927000839270008392700083927000800
:1000600039270008392700083927000839270008F0
:1000700039270008392700083927000839270008E0
:1000800039270008392700083927000839270008D0
:100090000D03000839270008392700083927000810
:1000A00039270008392700083927000839270008B0
:1000B00039270008392700083927000839270008A0
:1000C0003927000839270008392700083927000890
:1000D0003927000839270008392700083927000880
:1000E00039270008392700083927000800000000D8
:1000F0000000000000000000000000000000000000
:0C01000000000000000000005FF808F1A3
:10010C0010B5054C237833B9044B13B10448AFF345
:10011C0000800123237010BD0401002000000000AA
:10012C009427000808B5034B1BB103490348AFF3F0
:10013C00008008BD00000000080100209427000882
:10014C00282270B594B00DEB0200002102F014FBD4
:10015C00142210260DEB0200002102F00DFB32469A
:10016C00002101A802F008FB4FF480330122022584
:10017C000B9312934FF4E0130AA80A920E92139366
:10018C00119500F077FE0F23002405934FF4806344
:10019C00294605A8089306950794099401F032F8AE
:1001AC0001A80196049401F0DFF814B070BD0000B2
:1001BC000024012500B58BB08DF810508DF811403E
:1001CC008DF812408DF813408DF8144000F0E8F8CB
:1001DC00FFF7B6FF2146102206A802F0CDFA2D4BF0
:1001EC004FF400519A692C4842F010029A619A69B6
:1001FC0002F010020192019A9A6942F020029A616F
:10020C009A6902F020020292029A9A6942F0040260
:10021C009A619B69224603F004030393039B00F04D
:10022C003DFA4FF400530795022506A91A48069388
:10023C000894099500F052F90E2306A91748069365
:10024C000794089500F04AF902F0D0F8124D144CBE
:10025C0028464FF4005100F026FA20238DF8113077
:10026C000F2304A9052220468DF8123001F09EFDC3
:10027C001E2000F0B9F80023052204A920468DF8B1
:10028C0011308DF8123001F091FD4FF47A7000F0BE
:10029C00ABF8DDE7001002400010014000080140FF
:1002AC003C010020704700000E4B82B09A6942F06E
:1002BC0001029A619A6902F001020092009ADA69CD
:1002CC0042F08052DA61DB69074A03F080530193F4
:1002DC00019B536823F0E06343F00073536002B05A
:1002EC00704700BF00100240000001407047FEE75D
:1002FC00FEE7FEE7FEE770477047704700F062B814
:10030C00014800F0DBBA00BF600500200F4B1A68F3
:10031C0042F001021A6059680D4A0A405A601A6884
:10032C0022F0847222F480321A601A6822F480223D
:10033C001A605A6822F4FE025A604FF41F029A6047
:10034C004FF00062034B9A60704700BF00100240F0
:10035C000000FFF800ED00E038B50E4B05461878AC
:10036C004FF47A73B3FBF0F30B4A1068B0FBF3F065
:10037C0000F09EF8044658B90F2D09D802462946BC
:10038C004FF0FF3000F054F8044B20461D6038BD90
:10039C00012038BD040000200000002008000020CF
:1003AC00074A08B51368032043F01003136000F0EC
:1003BC002DF80020FFF7D0FFFFF776FF002008BDD7
:1003CC0000200240034A044B11681B780B44136055
:1003DC00704700BF3801002004000020014B186852
:1003EC00704700BF3801002038B50446FFF7F6FF10
:1003FC000546631C1EBF044B1B78E418FFF7EEFF89
:10040C00401B8442FAD838BD04000020074A000281
:10041C00D36800F4E06023F4E0631B041B0C43F08E
:10042C00BF6343F400330343D360704700ED00E037
:10043C00174B30B5DC68C4F30224C4F10703251D47
:10044C00042B28BF0423062D4FF0010598BF002470
:10045C0005FA03F303F1FF3388BF033C1940A140B5
:10046C0005FA04F4013C2240002842EA01024FEA5A
:10047C000212AFBF00F16040064B00F00F00D2B289
:10048C00A5BFD2B200F561401A5480F8002330BDEC
:10049C0000ED00E014ED00E00123420900F01F0024
:1004AC0003FA00F0014B43F82200704700E100E032
:1004BC000138B0F1807F0AD2F021064B064A586011
:1004CC0082F823100020072298601A6070470120E0
:1004DC00704700BF10E000E000ED00E02DE9F74FA1
:1004EC0000221646654BDFF8A4E1DFF8A4C14FF0FB
:1004FC0001080C6808FA06F808EA0404A0457FD144
:10050C004D68122D00F0AF8000F28880022D00F0B3
:10051C00A7807CD8002D00F08E80012D00F09E80ED
:10052C004FF00F09FF2C93BF824606F18045083D22
:10053C00D0F800B092BFB500D0F804B0AD0009FA05
:10054C0005F82BEA080802FA05F588BF00F1040A41
:10055C0048EA0505CAF80050D1F804A01AF0805FEB
:10056C004ED0474D464FAD6926F0030845F00105C6
:10057C00BD61BD6908F1804805F00105019508F5DC
:10058C00803806F0030B019D4FEA8B0BD8F808500E
:10059C0009FA0BF925EA09093A4DA84268D005F584
:1005AC008065A84266D005F58065A84264D005F543
:1005BC008065A8420CBF0325042505FA0BF545EA16
:1005CC000905C8F808501D681AF4803F14BF25436C
:1005DC00A5431D605D681AF4003F14BF2543A54375
:1005EC005D609D681AF4801F14BF2543A5439D6070
:1005FC00DD681AF4001F14BF2C4325EA0404DC60E8
:10060C000136102E7FF473AF03B0BDE8F08F032DCD
:10061C0022D0112D84D1CA68043281E71A4FBD4211
:10062C0009D012D8DFF86C904D4504D009F580390B
:10063C004D457FF475AF8A68C2B1012A0CBFC0F872
:10064C001080C0F8148008226AE77545F3D0654520
:10065C00F1D0DFF84490EBE7002261E7CA685FE76E
:10066C00CA6808325CE7CA680C3259E7042257E7BB
:10067C000025A2E70125A0E702259EE70004014022
:10068C000010024000080140000021100000311051
:10069C000000321000001110000022100AB101619C
:1006AC0070470904FBE7C3685940C16070472DE9E6
:1006BC00F041044686B0002860D090F8293403F04D
:1006CC00FF021BB980F8282401F0F8FE254603230D
:1006DC006E4655F8100B84F8293400F0CDFE0FCD82
:1006EC000FC62B6804F10408336098E80E002068EC
:1006FC0000F0B2FE0021206800F0C8FE0021234665
:10070C0022460126084604F1100582F8281091862D
:10071C0001310F2982F8296082F82B009063D06395
:10072C00106402F12002F0D10022174683F828222F
:10073C009A8601320F2A83F8297283F82B72C3F838
:10074C003872C3F83C72C3F8407203F12003EDD148
:10075C006E460FCD0FC62B68336098E80E002068EC
:10076C0000F096FE012384F82470206884F8293464
:10077C0001F066F9002006B0BDE8F0810120FAE72F
:10078C0090F8283410B5012B04460ED0012180F8C6
:10079C00281401F0A6FF206801F050F9206800F041
:1007AC0062FE002084F8280410BD022010BD90F8D1
:1007BC00282410B5012A04460BD0012280F82824E5
:1007CC0084F82410006801F033F9002084F8280420
:1007DC0010BD022010BD38B5044648B2002801F007
:1007EC007F05B5BF04EB451104EB4111283101F530
:1007FC000A71C00F0D704870CB7094F828340A61E0
:10080C00012B09D00123206884F8283400F05CFE09
:10081C00002084F8280438BD022038BD4BB2002BD0
:10082C0001F07F02B5BF00EB421100EB4111283102
:10083C0001F50A71DB0F10B50A704B7090F8283473
:10084C000446012B09D0012380F82834006800F0FD
:10085C00ADFF002084F8280410BD022010BD70B537
:10086C00002601F07F014D01441984F8281205F58A
:10087C000A710144C4F83C22C4F84032C4F8446202
:10088C0084F82962006801F0F5F8304670BD01F07B
:10089C007F0170B54D01441923640026012384F8AF
:1008AC00281005F128010144E263666484F82930BC
:1008BC00006801F0DFF8304670BD00002DE9F34709
:1008CC000446006801F0BEF8000400F1988020682E
:1008DC0001F0B8F841050FD522682046B2F8443033
:1008EC0023F480631B041B0CA2F8443001F01DFEA2
:1008FC0000212046FFF75BFF206801F0A3F84704B6
:10090C0008D52268B2F8443023F480431B041B0C36
:10091C00A2F84430206801F095F8860408D52268C6
:10092C00B2F8443023F400531B041B0CA2F84430DF
:10093C00206801F087F8C5041CD522682046B2F85F
:10094C00403023F004031B041B0CA2F84030B2F817
:10095C00403023F008031B041B0CA2F8403001F0BC
:10096C0001FE2268B2F8443023F480531B041B0CA4
:10097C00A2F84430206801F065F800051DD5206808
:10098C00B0F840309BB243F00803A0F84030B0F808
:10099C00443023F400631B041B0CA0F84430B0F863
:1009AC0040309BB243F00403A0F8403001F04AF809
:1009BC00C10402D4204601F0C5FD206801F042F8C4
:1009CC0082050BD522682046B2F8443023F400731C
:1009DC001B041B0CA2F8443001F0A3FD206801F0AD
:1009EC0031F8C30508D52268B2F8443023F480737B
:1009FC001B041B0CA2F8443002B0BDE8F0870023A6
:100A0C00C84FDFF82483DFF82493ADF80430ADF839
:100A1C0006302068B0F844309BB2ADF804301B04AB
:100A2C007FF555AFBDF8045015F00F0540F0AB80C5
:100A3C00BDF80410038811F010019BB226D13B4085
:100A4C000380B0F8503094F828209BB203EBC2031B
:100A5C0000EB4300D0F80434E26BC3F30903636486
:100A6C001344E363204601F055FD94F82430002B29
:100A7C00CFD0226C002ACCD194F82430216843F0DA
:100A8C008003A1F84C3084F82420C2E7ADF806307E
:100A9C00BDF806301A051FD5B0F8503094F828224E
:100AAC009BB203EBC20300EB4303D3F80C34B4F852
:100ABC002C22C3F30903C4F8443204F22C4101F094
:100ACC00D9F822682046138823F070031B051B0DF0
:100ADC00138001F011FD9CE7BDF806301B0498D57E
:100AEC00038823F070031B051B0D0380B0F85030F6
:100AFC0094F828229BB203EBC20300EB4303D3F818
:100B0C000C34C3F30903C4F8443263B1B4F82C2297
:100B1C00D4F83C1201F0AEF8D4F83C32D4F84422AC
:100B2C001344C4F83C320021204601F0EBFC22684F
:100B3C00D4F83852B2F850103E2D89B201F10601AA
:100B4C0002F5806017D9C5F34F13EE0604BF03F10D
:100B5C00FF339BB249EA83239BB240F811301388D0
:100B6C009BB203EA080383F4405343F4004343F07D
:100B7C00800313804DE7C5F34F03ED0744BF0133EA
:100B8C009BB29B02E8E730F825309BB2ADF80630FB
:100B9C00BDF8063019043FD530F825304FEA451A18
:100BAC0023F070031B051B0D20F8253004EB0A0104
:100BBC0091F83232002B74D1B0F8503091F82822D1
:100BCC009BB2063303EBC20300EB4303D3F8006480
:100BDC00C6F3090636B1B1F82C223346D1F83C12D3
:100BEC0001F048F804EB0A01D1F84432D1F83C2268
:100BFC003344C1F84432D1F840323244C1F83C227B
:100C0C0023B1D1F83802864280F08680A2449AF84B
:100C1C002812204601F076FCBDF806301A067FF546
:100C2C00F8AE20686E0130F82530A1199BB23B401C
:100C3C0020F8253091F832300235002B78D1B0F8FD
:100C4C00503091F828209BB2023303EBC20300EB27
:100C5C004303D3F8003404EB4515C3F309036B606D
:100C6C001BB18A8DC96B00F0F3FE22682644B2F8E2
:100C7C00503096F828109BB2023303EBC10302EB01
:100C8C004303D3F80024F36BC2F3090272641A44D1
:100C9C00336CF2632046002B40F0858001F03AFC67
:100CAC00B7E691F8283230F82320DB0012F4804F9D
:100CBC00B0F8502092B221D00232134400EB43031F
:100CCC00D3F80064C6F3090636B13346B1F82E22C8
:100CDC00D1F83C1200F0CEFF04EB0A0393F8281273
:100CEC00226832F8213023F0F0031B051B0D43F46E
:100CFC00004343F0C00322F8213073E7063213445B
:100D0C0000EB4303D3F80064C6F30906002EE3D0CE
:100D1C003346B1F83022DBE791F828122046FFF772
:100D2C009EFD79E70F8FFFFF8FBFFFFF0080FFFF56
:100D3C0091F8283030F82320DB0012F0400FB0F887
:100D4C00502092B220D00232134400EB4303D3F86C
:100D5C00003404EB4515C3F309036B601BB1CA8D5A
:100D6C00C96B00F075FEA31993F82810226832F8AD
:100D7C00213023F0F0031B051B0D43F4404343F0DB
:100D8C00800322F8213070E70632134400EB430352
:100D9C00D3F8003404EB4515C3F309036B60002B47
:100DAC00E1D00A8EDCE7FFF772FD32E6012238B59E
:100DBC004BB2002B01F07F05B5BF00EB451100EBEA
:100DCC004111283101F50A71DB0FEDB28A700D70FB
:100DDC004B7090F82834044693420ED080F82824A7
:100DEC00006800F0B1FD25B904F22C41206800F038
:100DFC002DFE002084F8280438BD022038BD38B5FB
:100E0C0000244BB2002B01F07F02B5BF00EB421166
:100E1C0000EB4111283101F50A71DB0F8C700A705F
:100E2C004B7090F828340546012B09D0012380F82B
:100E3C002834006800F0BAFD85F82844204638BDF7
:100E4C00022038BD11F0800F1BBF01F07F0100EBB9
:100E5C00411000EB4110283008BF00F50A701AB998
:100E6C0082728380002070470122C3801B0C827227
:100E7C000381F7E703682DE9F341DB07054610D43E
:100E8C002B689F075ED42B68190700F195802B689F
:100E9C005A0700F1BF80EA69002A40F02D8100203A
:100EAC0014E0904C636803F00C03042B07D06368C8
:100EBC0003F00C03082B0CD16368DE0309D52368FF
:100ECC009C03DDD56B68002BDAD1012002B0BDE8A4
:100EDC00F0816B68B3F5803F10D1236843F4803305
:100EEC002360FFF77BFA064623689803C8D4FFF704
:100EFC0075FA801B6428F7D90320E7E79BB92368B0
:100F0C0023F480332360236823F480232360FFF7CA
:100F1C0065FA064623689903B2D5FFF75FFA801B82
:100F2C006428F7D9E8E7B3F5A02F236803D143F47D
:100F3C0080232360D1E723F480332360236823F4D8
:100F4C008023CDE7674C636813F00C0F07D0636800
:100F5C0003F00C03082B10D16368DA030DD423685B
:100F6C009B0702D52B69012BAFD123686A6923F04B
:100F7C00F80343EAC203236085E72A695A4B6AB136
:100F8C0001221A60FFF72AFA064623689F07ECD461
:100F9C00FFF724FA801B0228F7D9ADE71A60FFF798
:100FAC001DFA0646236898077FF56DAFFFF716FA12
:100FBC00801B0228F6D99FE7AA694A4C4B4BDAB141
:100FCC0001221A60FFF70AFA0646636A9B070DD5E1
:100FDC004FF4FA52464B1B68B3FBF2F3019300BF7C
:100FEC00019B5A1E0192002BF9D150E7FFF7F6F93D
:100FFC00801B0228E9D97FE71A60FFF7EFF9064654
:10100C00636A9F077FF543AFFFF7E8F9801B02285F
:10101C00F6D971E7334CE369D80024D40127E3698E
:10102C0043F08053E361E36903F080530093009B2A
:10103C00304E3368D90518D5EB68012B26D1236ABD
:10104C0043F001032362FFF7C9F941F28836804669
:10105C00236A9B073FD5002F3FF41DAFE36923F0B4
:10106C008053E36117E70027E2E7336843F48073AA
:10107C003360FFF7B3F980463368DA05DCD4FFF749
:10108C00ADF9A0EB08006428F6D935E7ABB9236AB3
:10109C0041F2883823F001032362236A23F004030E
:1010AC002362FFF79BF90646236A9807D3D5FFF70F
:1010BC0095F9801B4045F7D91EE7052B236A03D110
:1010CC0043F004032362BAE723F001032362236A8B
:1010DC0023F00403B6E7FFF781F9A0EB0800B04258
:1010EC00B6D909E700100240000042428004424297
:1010FC000000002000700040224C636803F00C03D9
:10110C00082B3FF4E2AE00231F4E022A33602BD192
:10111C00FFF764F90746236899011FD42B6AB3F5CE
:10112C00803F05D16268A96822F400320A436260EC
:10113C00696A62680B4322F47412134363600123DF
:10114C003360FFF74BF9054623689A013FF5A7AECC
:10115C00FFF744F9401B0228F6D9CDE6FFF73EF91C
:10116C00C01B0228D7D9C7E6FFF738F90546236814
:10117C009B017FF594AEFFF731F9401B0228F6D99D
:10118C00BAE600BF001002406000424230B5194B75
:10119C0087B002AC03F11005224618685968083371
:1011AC0003C2AB421446F7D101238DF8043002235D
:1011BC0011498DF805304B6803F00C02082A17D141
:1011CC00C3F3834206A80244DB0312F8102C0CD59F
:1011DC004B680A48C3F34043504306AA134413F820
:1011EC00143CB0FBF3F007B030BD05485043FAE7B0
:1011FC000248F8E7AC2700080010024000127A0001
:10120C0000093D00544A2DE9F0411368054603F0EE
:10121C0007038B420E462AD329688C0734D4CA079D
:10122C0047D44D4A136803F007039E42C0F08280F6
:10123C002A684A4C12F0040F40F08780130706D539
:10124C0063682A6923F4605343EAC2036360FFF7BF
:10125C009DFF6368424AC3F30313D35CD840414BF0
:10126C0018600020FFF778F80020BDE8F0811368C3
:10127C0023F007030B431360136803F00703994231
:10128C00CAD00120BDE8F081344B11F0040F1EBF11
:10129C005A6842F4E0625A60080742BF5A6842F446
:1012AC0060525A605A68A86822F0F00202435A60F1
:1012BC00B5E76A68294C012A23681CD113F4003F56
:1012CC00DFD0636841F2883823F003031343636073
:1012DC00FFF784F86B680746012B14D1636803F0A1
:1012EC000C03042B9DD0FFF779F8C01B4045F5D9B2
:1012FC000320BDE8F081022A02D113F0007FDFE762
:10130C0013F0020FDCE7022B0FD1636803F00C0320
:10131C00082B86D0FFF762F8C01B4045F5D9E7E7EC
:10132C00FFF75CF8C01B4045E2D8636813F00C0F64
:10133C00F6D176E7136823F0070333431360136881
:10134C0003F007039E429CD172E76368E96823F4BB
:10135C00E0630B43636071E7002002400010024021
:10136C00BC2700080000002003682DE9F341D907D1
:10137C00054620D5354CE369DA0032D40127E36900
:10138C0043F08053E361E36903F080530193019BC5
:10139C002F4E3368DB0526D5236A13F4407336D100
:1013AC00236A6A6823F44073134323621FB1E36911
:1013BC0023F08053E3612868830706D5234AA96884
:1013CC00536823F440430B43536010F010001BD0C0
:1013DC001E4AE9685368002023F480030B435360D2
:1013EC0012E00027D4E7336843F480733360FEF7D0
:1013FC00F5FF80463368D805CED4FEF7EFFFA0EB9F
:10140C0008006428F6D9032002B0BDE8F0816A68B0
:10141C0002F440729342C3D001200E4A236A10603A
:10142C00002023F4407110602162D907B8D5FEF773
:10143C00D5FF41F288380646236A9A07B0D4FEF7E6
:10144C00CDFF801B4045F7D9DDE700BF00100240FF
:10145C00007000404004424284B001A880E80E00B5
:10146C0004B000207047B0F840309BB243F43F43C7
:10147C00A0F8403000207047B0F8403023F474538B
:10148C005B045B0CA0F840300020704700207047D4
:10149C0084B010B503AC84E80E00BDE81040002207
:1014AC000123A0F84030A0F84020A0F84420A0F878
:1014BC005020B0F8403004B09BB243F43F43A0F846
:1014CC00403010467047000070B5CB780A78032B7B
:1014DC000FD8DFE803F00264505930F8223023F4BF
:1014EC00EC4323F070031B041B0C43F4007320F833
:1014FC00223040F60F730C7830F8242044F4004569
:10150C0045F080051A402A4320F824208A7A0D7869
:10151C00002A40F097804C788A88002C4AD0B0F88A
:10152C0050405208A4B204EBC50400EB4404520032
:10153C00C4F800240C7830F82420520608D530F872
:10154C002420134043F4004343F0C00320F824301C
:10155C000A7830F8223023F4E04323F040031B04D4
:10156C001B0C83F0200343F4004343F0800320F86A
:10157C002230002070BD30F8223023F4EC4323F0ED
:10158C0070031B041B0CB2E730F8223023F4EC433D
:10159C0023F070031B041B0C43F4C063A7E730F863
:1015AC00223023F4EC4323F070031B041B0C43F494
:1015BC0080639CE7B0F8503052089BB2043303EBC5
:1015CC00C503520000F5806444F81320B0F8502095
:1015DC000D6992B20B7806323E2D02EBC30229D96B
:1015EC00C5F34F16EB0604BF06F1FF339EB26E4BEC
:1015FC0043EA86239BB244F812300A7830F8223042
:10160C005E040BD530F8223023F0F0031B051B0DC4
:10161C0043F4404343F0800320F822300A7830F83A
:10162C00223023F4804323F070031B041B0C83F43F
:10163C00405398E7C5F34F03ED0744BF01339BB20A
:10164C009B02D7E730F8252022F4F8721205120D10
:10165C0042F4014242F0800220F82520B0F85020DC
:10166C000C7892B202EBC402CC8800F58065640859
:10167C00640045F81240B0F850200C7892B2043255
:10168C0002EBC4020C896408640045F812404A78E5
:10169C000C78002A47D130F82420550408D530F8AE
:1016AC002420134043F4404343F0800320F82430BB
:1016BC000A7830F822305C060BD530F8223023F053
:1016CC00F0031B051B0D43F4004343F0C00320F84B
:1016DC0022300A7830F8223023F0F0031B051B0D62
:1016EC0043F4004343F0C00320F8223048F2800258
:1016FC000C7830F8243023F4804323F070031B045F
:10170C001B0C83F44053134320F82430097830F831
:10171C00213023F4E04323F040031B041B0C134340
:10172C0020F8213025E730F82420520408D530F871
:10173C002420134043F4404343F0800320F824302A
:10174C000A7830F822305B060BD530F8223023F0C3
:10175C00F0031B051B0D43F4004343F0C00320F8BA
:10176C0022300A7830F8223023F0F0031B051B0DD1
:10177C0043F4404343F0800320F8223048F28002C7
:10178C000C7830F8243023F4E04323F040031B049E
:10179C001B0C134320F82430097830F8213023F443
:1017AC00804323F07003B8E70080FFFF10B58C7AFC
:1017BC004A780B78CCBB02B330F8232052060BD5F9
:1017CC0030F8232022F0F0021205120D42F40042F0
:1017DC0042F0C00220F823200A7830F8223023F49B
:1017EC00E04323F040031B041B0C43F4004343F081
:1017FC00800320F82230002010BD30F82320540440
:10180C000BD530F8232022F0F0021205120D42F411
:10181C00404242F0800220F823200A7830F822302F
:10182C0023F4804323F07003DDE7002A48D130F81D
:10183C00232052040BD530F8232022F0F00212059D
:10184C00120D42F4404242F0800220F823200A7824
:10185C0030F822305C060BD530F8223023F0F00340
:10186C001B051B0D43F4004343F0C00320F822304A
:10187C000A7830F8223023F0F0031B051B0D43F4DB
:10188C00004343F0C00320F8223048F280020C7869
:10189C0030F8243023F4804323F070031B041B0C1A
:1018AC00134320F82430097830F8213023F4E04336
:1018BC0023F040031B041B0C134320F821309AE740
:1018CC0030F8232052040BD530F8232022F0F002FC
:1018DC001205120D42F4404242F0800220F82320FF
:1018EC000A7830F822305B060BD530F8223023F022
:1018FC00F0031B051B0D43F4004343F0C00320F819
:10190C0022300A7830F8223023F0F0031B051B0D2F
:10191C0043F4404343F0800320F8223048F2800225
:10192C000C7830F8243023F4E04323F040031B04FC
:10193C001B0C134320F82430097830F8213023F4A1
:10194C00804323F07003B5E70A788AB9038823F43F
:10195C00804323F040031B041B0C83F4805383F05F
:10196C00100343F4004343F08003038000207047CE
:10197C004B7883B130F8223023F4E04323F040035A
:10198C001B041B0C83F0100343F4004343F080034F
:10199C0020F82230EAE730F8223023F4804323F099
:1019AC0070031B041B0C83F48053EDE74B780A780F
:1019BC0013B330F822305B060BD530F8223023F00D
:1019CC00F0031B051B0D43F4004343F0C00320F848
:1019DC0022300A7830F8223023F4E04323F040031D
:1019EC001B041B0C83F0300343F4004343F08003CF
:1019FC0020F822300020704730F822305B040BD5E1
:101A0C0030F8223023F0F0031B051B0D43F4404348
:101A1C0043F0800320F822300A7830F8223023F487
:101A2C00804323F070031B041B0C83F44053DBE74F
:101A3C0011B98023A0F84C3000207047002070476B
:101A4C0000207047B0F8440080B270470020704707
:101A5C0010B50024013300F580605B1000EB4202EE
:101A6C00A34200D110BD31F8020B22F8240001343E
:101A7C00F6E7000070B50E468A69497805460129DB
:101A8C003369B07A66D19A421C469BBF0023144638
:101A9C00D21AB36188BFB261A3B210BBB2887169AC
:101AAC002846FFF7D5FFB5F8503032789BB2023399
:101ABC0003EBC20305EB4303C3F80044327835F85B
:101ACC00223023F4E04323F040031B041B0C83F06F
:101ADC00300343F4004343F0800325F82230002008
:101AEC0070BD327835F82210D20011F0400FB5F8E5
:101AFC00501089B21AD002310A4405EB4202C2F8E6
:101B0C000044328971692846FFF7A2FF7378327856
:101B1C009BB935F8223023F0F0031B051B0D43F461
:101B2C00004343F0C00325F82230C7E70A4405EB15
:101B3C004202C2F80444F288E4E7012BBED135F826
:101B4C00223023F0F0031B051B0D43F4404343F0FC
:101B5C008003E8E79A4293BF0023D21AB261B361C3
:101B6C0098BF1346327870BBB5F850103E2B89B233
:101B7C0001F1060101EBC20105F5806018D9C3F330
:101B8C004F12DB0604BF02F1FF339AB2384B43EA23
:101B9C0082239BB240F81130327835F8223023F48E
:101BAC00804323F070031B041B0C83F4405390E719
:101BBC00C3F34F02DC0744BF013292B2920292B2DD
:101BCC0040F81120E8E7B9B9B5F850103E2B89B2AE
:101BDC0001F1020101EBC20105F5806428D9C3F3C0
:101BEC004F10DA0604BF00F1FF3290B2204A42EAED
:101BFC00802292B244F81120727831785ABBB5F831
:101C0C0050203E2B92B202F1060202EBC10205F506
:101C1C00806015D9C3F34F11DC0604BF01F1FF330B
:101C2C0099B2134B43EA81239BB240F81230B3E7CD
:101C3C00C3F34F02D80744BF013292B29202D8E7E5
:101C4C00C3F34F01DB0744BF013189B2890289B26A
:101C5C0040F81210A0E7012A9ED1B5F8502092B29C
:101C6C00023202EBC10205EB4202C2F8003493E7E8
:101C7C000080FFFF10B50024013300F580605B107D
:101C8C0000EB4202A34200D110BD52F8240021F80F
:101C9C0014000134F6E7000022230380004870474B
:101CAC0094000020D0F81832002018737047000000
:101CBC000A23038000487047C400002038B50C7814
:101CCC00054614F06004D0F8183223D0202C0CD127
:101CDC004A78023A092A17D8DFE802F013091616D7
:101CEC00161616160F058A781A60002410E00122C9
:101CFC001946284600F046FBF7E74A88120A5A6054
:101D0C00F3E70122191DF4E7284600F014FB022426
:101D1C00204638BD4A780A2A18D00B2A1CD0062A2D
:101D2C00F6D14B881B0A222B05D1CA880C494E2AA6
:101D3C0028BF4E22DDE7212B05D1CA880949092A83
:101D4C0028BF0922D5E721462246D2E7012203F11A
:101D5C00080100F017FBDBE78A789A60D8E700BF30
:101D6C000C000020B800002010B50446812100F0C2
:101D7C004FFCD4F8180220B100F0B2FC0023C4F8D8
:101D8C001832002010BD10B5052303228121044612
:101D9C0000F02EFC102000F09FFCC4F8180218B1C3
:101DAC0000230373184610BD012010BD10B5134657
:101DBC0090F8FC21032A09D1D0F81842227B2AB9C9
:101DCC00012222730A46812100F06AFC002010BD1A
:101DDC0008B580B1D0F8143213B10023C0F8143216
:101DEC0009B1C0F810120123027080F8FC3100F028
:101DFC00BDFB002008BD022008BD19B1C0F81412AB
:101E0C00002070470220704708B500F0E3FB00206B
:101E1C0008BD08B5D0F814320BB9022008BD1B68F8
:101E2C0098470028F9D108BD08B5D0F814325B6882
:101E3C009847002008BD38B500F5027504462846C1
:101E4C0000F065FA012394F80812C4F8F431B4F8E0
:101E5C000E32C4F8F83101F01F03012B0ED007D35A
:101E6C00022B10D001F08001204600F0DFFB03E0D4
:101E7C002946204600F0D6F8002038BD29462046D9
:101E8C0000F0CAF9F8E72946204600F0DDF9F3E73F
:101E9C0038B50446154611BBD0F8F431032B0FD1DD
:101EAC00D0F80C31D0F8102193420BD99B1A9A42DE
:101EBC0028BF1A46C0F80C3192B2294600F077FAC6
:101ECC00002038BDD0F814321B6923B190F8FC21E6
:101EDC00032A00D19847204600F071FAF0E7D0F8B9
:101EEC0014329B69002BEBD090F8FC21032AE7D12C
:101EFC009847E5E770B5134604460E4600293DD1D8
:101F0C00D0F8F421022A0FD1C569026A954214D97E
:101F1C00AA1AC261194692B200F041FA33461A4627
:101F2C001946204600F0CAFB94F80032012B02D16E
:101F3C00002384F80032002070BD8369B3FBF2F5F6
:101F4C0002FB153565B99A420AD8D0F8F8219342AC
:101F5C0006D22A4600F023FAC4F8F8512B46DEE7E5
:101F6C00D4F81432DB682BB194F8FC21032A01D18C
:101F7C0020469847204600F02DFAD5E7D0F81432C9
:101F8C005B69002BD7D090F8FC21032AD3D198475A
:101F9C00D1E7002238B5044640251146402300F015
:101FAC0027FB2B46C4F8105100228021204600F05C
:101FBC001FFB012384F8FC31D4F8183225622BB1B5
:101FCC00D4F8143221795B6820469847002038BD3C
:101FDC0001740020704790F8FC3180F8FD31042327
:101FEC0080F8FC310020704790F8FD3180F8FC310E
:101FFC000020704708B590F8FC21032A04D1D0F8D2
:10200C001432DB6903B19847002008BD10B50446B3
:10201C00802100F00BFB2046BDE81040002100F0B1
:10202C0005BB000037B54B7804460D46092B79D813
:10203C00DFE813F0C900E5007800D90078006D00E6
:10204C000A007800B9008D004B881A0A013A062A5A
:10205C0068D8DFE802F0041C296767495200D0F801
:10206C0010321B680DF10601207C9847BDF8062044
:10207C00002A67D0EB88002B64D09A4228BF1A46FE
:10208C000146ADF80620204600F07CF95AE0027CAF
:10209C00D0F8143232B99B6A0DF10600984702232E
:1020AC004370E3E7DB6AF7E7DBB2052B3AD8DFE8EE
:1020BC0003F003070B0F1317D0F810325B68D1E74E
:1020CC00D0F810329B68CDE7D0F81032DB68C9E746
:1020DC00D0F810321B69C5E7D0F810325B69C1E744
:1020EC00D0F810329B69BDE7037CDBB9D0F8143211
:1020FC000DF106005B6B9847B8E7037C93B9D0F8F9
:10210C0014320DF106001B6B98470723C8E78B8828
:10211C0043B9CB8833B990F8FC318D78032B05F09B
:10212C007F0503D12046FFF771FF0BE080F8FE51CD
:10213C00294600F0A7FA204600F041F92DB1022300
:10214C0084F8FC31002003B030BD0123F8E7897816
:10215C00304D01292970E5D890F8FC31022B0CD0B8
:10216C00032BDFD1B1B90223416080F8FC31FFF7BA
:10217C005BFE204600F023F9E4E70029F9D00121A9
:10218C000323416080F8FC312046FFF742FE022811
:10219C00EFD1C7E741680129EBD0C9B2FFF744FE84
:1021AC0029786160F0E7CA88012ABBD190F8FC312C
:1021BC00022B03D0032BB5D1011D64E7014600238C
:1021CC0041F8083F5FE790F8FC31023B012BA9D89E
:1021DC000123C360D0F804320BB10323C360022285
:1021EC0004F10C014FE74B88012BABD1C4F804323E
:1021FC00D4F8143229469B6820469847B9E790F8E2
:10220C00FC31023B012B8DD84B88012B9AD100233A
:10221C00ECE700BF2001002038B590F8FC310446F3
:10222C00032B0D460DD10B79012B0AD8D0F81432A3
:10223C009B689847EB8813B9204600F0C0F8002043
:10224C0038BDFFF7E3FEFAE770B50A788E8802F026
:10225C006002202A04460D46F3B205D1D0F81432A0
:10226C009B689847002070BD4A78012A1CD02AD35D
:10227C00032AF7D190F8FC21022A40D0032A02D07D
:10228C00FFF7C4FEEEE74A8822B95E0602D0194673
:10229C0000F0CCF9D4F8143229469B6820469847B4
:1022AC00204600F08CF8DDE790F8FC21022A26D0BD
:1022BC00032AE5D14A88002AD4D15906F0D0194610
:1022CC0000F0C2F9E6E790F8FC21022A17D0032AA5
:1022DC00D6D103F07F0516F0800F00EB05151946DB
:1022EC0014BF143505F5827500F0BCF968B10123F3
:1022FC002B6002222946204600F044F8B2E75A0629
:10230C00B0D0194600F092F9ACE72860F1E70B78F1
:10231C0003704B784370CA788B7803EB02234380AD
:10232C004A790B7903EB02238380CA798B7903EB0F
:10233C000223C380704710B50446802100F076F963
:10234C002046BDE81040002100F070B930B588B1CE
:10235C0005462B1A15F8014BDBB2002CF9D15B00AA
:10236C00023313800B7003234B700223013810F8D7
:10237C00015F05B930BD5A1CCD54D2B20233DBB269
:10238C008C54F4E71346022210B5C0F8F421836193
:10239C000A46C361002100F083F9002010BD08B586
:1023AC0013460A46002100F07BF9002008BD08B551
:1023BC0013460A46002100F081F9002008BD08B53B
:1023CC000423C0F8F43100231A46194600F068F9CA
:1023DC00002008BD08B50523C0F8F43100231A46C7
:1023EC00194600F06BF9002008BD000010B5074C31
:1023FC00002207492046FFF7EBFC20460549FFF772
:10240C00FCFC2046BDE81040FFF7FEBC3C01002060
:10241C00D00000205C000020122301480B80704784
:10242C00EC000020042301480B80704700010020C1
:10243C0010B5044C0A4604482146FFF787FF204696
:10244C0010BD00BF60030020E527000810B5044C48
:10245C000A4604482146FFF779FF204610BD00BF0D
:10246C0060030020F827000810B5044C0A46044805
:10247C002146FFF76BFF204610BD00BF6003002014
:10248C000E28000810B5044C0A4604482146FFF7F4
:10249C005DFF204610BD00BF60030020CC27000864
:1024AC0010B5044C0A4604482146FFF74FFF20465E
:1024BC0010BD00BF60030020D727000807B50D4BE7
:1024CC0002689A4212D103F5DA33DA69142042F425
:1024DC000002DA610022DB69114603F40003019368
:1024EC00019BFDF7A5FF1420FDF7D6FF03B05DF8A7
:1024FC0004FB00BF005C004000F22C41D0F85C04EF
:10250C00FFF799BC00EB4113D3F83C22D0F85C04E4
:10251C00FFF7BEBC00EB4113DA6BD0F85C04FFF79D
:10252C00E9BCD0F85C04FFF765BD10B50446012189
:10253C00D0F85C04FFF74CFDD4F85C04BDE8104007
:10254C00FFF727BD10B50446D0F85C04FFF743FD38
:10255C00A36923B1024A136943F00603136110BD4A
:10256C0000ED00E0D0F85C04FFF73EBD10B502238F
:10257C0008224FF0030E04461449154880E80E401B
:10258C000023C0F85C44C4F820028361C361036279
:10259C00FEF78DF808B1FDF785FE002218231146D1
:1025AC00D4F82002FEF74EFC582300228021D4F8E8
:1025BC002002FEF747FC4FF4807300228121D4F8EF
:1025CC002002FEF73FFC002010BD00BF005C004065
:1025DC006005002008B5D0F82002FEF7D1F80328DA
:1025EC009ABF024B185C022008BD00BF1B280008D4
:1025FC0010B51C46D0F8200213462246FEF7EBF825
:10260C0003289ABF014B185C022010BD1B28000840
:10261C0008B5D0F82002FEF701F903289ABF024B47
:10262C00185C022008BD00BF1B28000808B5D0F8B4
:10263C002002FEF7BBFB03289ABF024B185C02205A
:10264C0008BD00BF1B28000808B5D0F82002FEF713
:10265C00D6FB03289ABF024B185C022008BD00BFB2
:10266C001B2800080A06D0F8203245BF01F07F0174
:10267C0003EB411303EB411393F82A0058BF93F873
:10268C002A02704708B5D0F82002FEF790F803280C
:10269C009ABF024B185C022008BD00BF1B28000823
:1026AC0008B5D0F82002FEF7F2F803289ABF024BC7
:1026BC00185C022008BD00BF1B28000808B5D0F824
:1026CC002002FEF7CCF803289ABF024B185C0220BC
:1026DC0008BD00BF1B2800080048704724010020DB
:1026EC0070477047002103E00B4B5B58435004319B
:1026FC000A480B4B42189A42F6D30A4A02E00023CE
:10270C0042F8043B084B9A42F9D3FDF7FFFD00F069
:10271C000FF8FDF74DFD7047282800080000002039
:10272C000401002004010020C0090020FEE7000085
:10273C0070B500250C4E0D4CA41BA410A54209D15C
:10274C0000F022F800250A4E0A4CA41BA410A54246
:10275C0005D170BD56F8253098470135EEE756F88F
:10276C00253098470135F2E720280008202800087A
:10277C00202800082428000803460244934200D174
:10278C00704703F8011BF9E7F8B500BFF8BC08BCAB
:10279C009E467047F8B500BFF8BC08BC9E46704713
:1027AC0002030405060708090A0B0C0D0E0F101086
:1027BC0000000000000000000102030406070809E5
:1027CC0048494420436F6E66696700484944204974
:1027DC006E746572666163650053544D6963726F04
:1027EC00656C656374726F6E6963730053544D331B
:1027FC00322048756D616E20696E74657266616316
:10280C006500303030303030303030303141000005
:04281C0002010200B3
:04282000310100087A
:042824000D0100089A
:1028280000A24A040100000010000000050109068A
:10283800A101850105077501950819E029E715002B
:1028480025018102950375081500256405071900FF
:1028580029658100C0050C0901A1018502050C1537
:102868000025017501950809B509B609B709B80920
:10287800CD09E209E909EA8102C00000931D0008B8
:10288800751D0008C91C00080000000000000000B9
:10289800B11C00080000000000000000000000005B
:1028A80000000000A51C0008A51C0008A51C0008C5
:1028B800BD1C000809022200010100E032090400E1
:1028C800000103000100092111010001224E000747
:1028D80005810305000A0000092111010001224EAB
:1028E800000000000A06000200000040010000008D
:1028F80025240008312400083D2400085924000834
:102908007524000891240008AD2400081201000273
:102918000000004083042B5700020102030100005D
:042928000403090497
:04000005080026F1D8
:00000001FF
